{
  "contractName": "DappTokenSale",
  "abi": [
    {
      "inputs": [
        {
          "internalType": "contract DappToken",
          "name": "_tokenContract",
          "type": "address"
        },
        {
          "internalType": "uint256",
          "name": "_tokenPrice",
          "type": "uint256"
        }
      ],
      "payable": false,
      "stateMutability": "nonpayable",
      "type": "constructor"
    },
    {
      "anonymous": false,
      "inputs": [
        {
          "indexed": true,
          "internalType": "address",
          "name": "_buyer",
          "type": "address"
        },
        {
          "indexed": true,
          "internalType": "uint256",
          "name": "_amount",
          "type": "uint256"
        }
      ],
      "name": "Sell",
      "type": "event"
    },
    {
      "constant": true,
      "inputs": [],
      "name": "tokenContract",
      "outputs": [
        {
          "internalType": "contract DappToken",
          "name": "",
          "type": "address"
        }
      ],
      "payable": false,
      "stateMutability": "view",
      "type": "function"
    },
    {
      "constant": true,
      "inputs": [],
      "name": "tokenPrice",
      "outputs": [
        {
          "internalType": "uint256",
          "name": "",
          "type": "uint256"
        }
      ],
      "payable": false,
      "stateMutability": "view",
      "type": "function"
    },
    {
      "constant": true,
      "inputs": [],
      "name": "tokensSold",
      "outputs": [
        {
          "internalType": "uint256",
          "name": "",
          "type": "uint256"
        }
      ],
      "payable": false,
      "stateMutability": "view",
      "type": "function"
    },
    {
      "constant": false,
      "inputs": [
        {
          "internalType": "uint256",
          "name": "_numberOfTokens",
          "type": "uint256"
        }
      ],
      "name": "buyTokens",
      "outputs": [],
      "payable": true,
      "stateMutability": "payable",
      "type": "function"
    }
  ],
  "bytecode": "0x608060405234801561001057600080fd5b5060405161061e38038061061e8339818101604052604081101561003357600080fd5b810190808051906020019092919080519060200190929190505050336000806101000a81548173ffffffffffffffffffffffffffffffffffffffff021916908373ffffffffffffffffffffffffffffffffffffffff16021790555081600160006101000a81548173ffffffffffffffffffffffffffffffffffffffff021916908373ffffffffffffffffffffffffffffffffffffffff160217905550806002819055505050610537806100e76000396000f3fe60806040526004361061003f5760003560e01c80633610724e14610044578063518ab2a81461007257806355a373d61461009d5780637ff9b596146100f4575b600080fd5b6100706004803603602081101561005a57600080fd5b810190808035906020019092919050505061011f565b005b34801561007e57600080fd5b5061008761047e565b6040518082815260200191505060405180910390f35b3480156100a957600080fd5b506100b2610484565b604051808273ffffffffffffffffffffffffffffffffffffffff1673ffffffffffffffffffffffffffffffffffffffff16815260200191505060405180910390f35b34801561010057600080fd5b506101096104aa565b6040518082815260200191505060405180910390f35b61012b816002546104b0565b341461019f576040517f08c379a00000000000000000000000000000000000000000000000000000000081526004018080602001828103825260118152602001807f546f6b656e206d7573742062652077656900000000000000000000000000000081525060200191505060405180910390fd5b80600160009054906101000a900473ffffffffffffffffffffffffffffffffffffffff1673ffffffffffffffffffffffffffffffffffffffff166370a08231306040518263ffffffff1660e01b8152600401808273ffffffffffffffffffffffffffffffffffffffff1673ffffffffffffffffffffffffffffffffffffffff16815260200191505060206040518083038186803b15801561023f57600080fd5b505afa158015610253573d6000803e3d6000fd5b505050506040513d602081101561026957600080fd5b810190808051906020019092919050505010156102ee576040517f08c379a00000000000000000000000000000000000000000000000000000000081526004018080602001828103825260128152602001807f696e73756666696369656e7420746f6b656e000000000000000000000000000081525060200191505060405180910390fd5b600160009054906101000a900473ffffffffffffffffffffffffffffffffffffffff1673ffffffffffffffffffffffffffffffffffffffff1663a9059cbb33836040518363ffffffff1660e01b8152600401808373ffffffffffffffffffffffffffffffffffffffff1673ffffffffffffffffffffffffffffffffffffffff16815260200182815260200192505050602060405180830381600087803b15801561039757600080fd5b505af11580156103ab573d6000803e3d6000fd5b505050506040513d60208110156103c157600080fd5b8101908080519060200190929190505050610427576040517f08c379a00000000000000000000000000000000000000000000000000000000081526004018080602001828103825260268152602001806104dd6026913960400191505060405180910390fd5b80600360008282540192505081905550803373ffffffffffffffffffffffffffffffffffffffff167f5e5e995ce3133561afceaa51a9a154d5db228cd7525d34df5185582c18d3df0960405160405180910390a350565b60035481565b600160009054906101000a900473ffffffffffffffffffffffffffffffffffffffff1681565b60025481565b6000808214806104cd57508282838502925082816104ca57fe5b04145b6104d657600080fd5b9291505056fe556e61626c6520746f207472616e7366657220746f6b656e20746f206d73672e73656e646572a265627a7a723158203fd847e877aa6f967e6d751f0305cba5e004467a07fb49ed977192b5125cddb564736f6c63430005100032",
  "source": "// SPDX-License-Identifier: MIT\r\npragma solidity >=0.4.22 <0.8.0;\r\n\r\nimport \"./DappToken.sol\";\r\n\r\ncontract DappTokenSale {\r\n  address private admin;\r\n  DappToken public tokenContract;\r\n  uint256 public tokenPrice;\r\n  uint256 public tokensSold;\r\n\r\n  event Sell(\r\n    address indexed _buyer,\r\n    uint256 indexed _amount\r\n  );\r\n\r\n  constructor (DappToken _tokenContract, uint256 _tokenPrice) public {\r\n    admin = msg.sender;\r\n    tokenContract = _tokenContract;\r\n    tokenPrice = _tokenPrice;\r\n  }\r\n\r\n  //multiply\r\n  function multiply(uint x, uint y) internal pure returns (uint z) {\r\n    require(y == 0 || (z = x * y) / y == x);\r\n  }\r\n\r\n  function buyTokens(uint256 _numberOfTokens) public payable {\r\n    \r\n    //Require that value is equal to tokens\r\n    require(msg.value == multiply(_numberOfTokens, tokenPrice), 'Token must be wei');\r\n    //Require that the contract has enough tokens\r\n    require(tokenContract.balanceOf(address(this)) >= _numberOfTokens, 'insufficient token');\r\n    //Require that a transfer is successful\r\n    require(tokenContract.transfer(msg.sender, _numberOfTokens), 'Unable to transfer token to msg.sender');\r\n    //Keep track of token sold\r\n    tokensSold += _numberOfTokens;\r\n    //Trigger Sell Event\r\n    emit Sell(msg.sender, _numberOfTokens);\r\n\r\n  }\r\n\r\n\r\n}",
  "sourcePath": "C:/Users/user/3D Objects/project/chain/token_sale/contracts/DappTokenSale.sol",
  "compiler": {
    "name": "solc",
    "version": "0.5.16+commit.9c3226ce.Emscripten.clang"
  },
  "schemaVersion": "3.3.2",
  "updatedAt": "2020-12-18T22:36:49.342Z",
  "networkType": "ethereum",
  "devdoc": {
    "methods": {}
  },
  "userdoc": {
    "methods": {}
  }
}